:100000000C9446000C9465000C9465000C946500FB
:100010000C9465000C9465000C9465000C946500CC
:100020000C9465000C9465000C9465000C946500BC
:100030000C9465000C94DE000C9465000C94650033
:100040000C9465000C9465000C9465000C9465009C
:100050000C9465000C9465000C9465000C9465008C
:100060000C9465000C9465000C9465000C9465007C
:100070000C9465000C9465000C9465000C9465006C
:100080000C9465000C9465000C94650011241FBE4F
:10009000CFEFD0E4DEBFCDBF11E0A0E0B1E0ECE2F5
:1000A000F8E000E00BBF02C007900D92A431B10749
:1000B000D9F721E0A4E1B1E001C01D92A632B20758
:1000C000E1F70E944B030C9414040C940000CF93AE
:1000D000DF9300D01F92CDB7DEB789837B836A831D
:1000E00089818A3031F48A819B81BC018DE00E9434
:1000F000670080EC90E0FC018081882F90E08072A6
:100100009927892BB1F386EC90E02981FC012083AB
:1001100080E090E00F900F900F90DF91CF910895C5
:10012000CF93DF93CDB7DEB781E080931401000059
:10013000DF91CF910895CF93DF93CDB7DEB781E8FC
:1001400090E02BE0FC01208388E890E02DE730E090
:10015000FC01318320838FE690E022E0FC012083C4
:1001600084E890E0FC011182108280910E01909150
:100170000F01A0911001B09111018093150190938E
:100180001601A0931701B09318018FE590E02FE5B9
:1001900030E0F90120812068FC0120830000DF911C
:1001A000CF910895CF93DF93CDB7DEB781E890E08C
:1001B000FC0110820000DF91CF9108951F920F92F1
:1001C00000905F000F92112400905B000F922F931C
:1001D0003F934F935F936F937F938F939F93AF93CF
:1001E000BF93EF93FF93CF93DF93CDB7DEB78091AB
:1001F000150190911601A0911701B0911801019776
:10020000A109B1098093150190931601A0931701DC
:10021000B09318018091150190911601A0911701DA
:10022000B0911801892B8A2B8B2B91F40E9490009E
:1002300080910E0190910F01A0911001B0911101D8
:100240008093150190931601A0931701B0931801A4
:100250000000DF91CF91FF91EF91BF91AF919F91FE
:100260008F917F916F915F914F913F912F910F905F
:1002700000925B000F9000925F000F901F90189506
:10028000CF93DF9300D000D0CDB7DEB769837A83F8
:100290008B839C8389819A81AB81BC8180930E0181
:1002A00090930F01A0931001B093110180910E0162
:1002B00090910F01A0911001B0911101809315014F
:1002C00090931601A0931701B093180100000F90AE
:1002D0000F900F900F90DF91CF910895CF93DF9300
:1002E000CDB7DEB780911E0190911F01823091053C
:1002F000E1F08330910528F4009749F0019771F0FF
:1003000029C083309105C1F00497E9F023C081E052
:1003100090E090931F0180931E011CC082E090E04A
:1003200090931F0180931E0115C083E090E090938D
:100330001F0180931E010EC084E090E090931F0186
:1003400080931E0107C082E090E090931F0180938C
:100350001E01000080911E0190911F0183309105C4
:1003600051F08430910559F0029709F00CC081E0FA
:100370008093190108C082E08093190104C084E0D1
:100380008093190100000000DF91CF910895CF9371
:10039000DF93CDB7DEB780912201909123018130A8
:1003A000910581F08130910530F08230910589F01E
:1003B0000397B1F01CC081E090E0909323018093FB
:1003C000220115C083E090E09093230180932201E5
:1003D0000EC083E090E0909323018093220107C038
:1003E00082E090E0909323018093220100008091AD
:1003F0002201909123018230910531F083309105E3
:1004000039F0892B41F008C081E080931A0104C0C3
:1004100010921A0101C000000000DF91CF910895F1
:10042000CF93DF931F92CDB7DEB780E290E0FC015F
:10043000808180958770898380911C0190911D0136
:100440008130910581F08130910530F08230910545
:1004500089F00397C9F025C081E090E090931D01D9
:1004600080931C011EC082E090E090931D01809358
:100470001C0117C08981882389F083E090E0909364
:100480001D0180931C010AC08981843049F482E0F7
:1004900090E090931D0180931C0102C0000001C0F8
:1004A000000080911C0190911D018230910531F076
:1004B0008330910539F0019741F008C081E08093C5
:1004C0001B0104C010921B0101C0000000000F902E
:1004D000DF91CF910895CF93DF931F92CDB7DEB711
:1004E00080E290E0FC018081809587708983809113
:1004F00020019091210182309105A9F1833091056D
:1005000028F4009771F0019799F070C0843091053C
:1005100009F44BC084309105B8F1059709F456C031
:1005200065C081E090E090932101809320015FC03D
:100530008981813039F482E090E0909321018093A9
:10054000200155C08981823039F483E090E0909396
:100550002101809320014BC081E090E09093210124
:100560008093200144C08981882339F481E090E0A0
:1005700090932101809320013AC084E090E0909311
:1005800021018093200133C08981882339F481E0DF
:1005900090E0909321018093200129C085E090E0B4
:1005A000909321018093200122C08981813039F408
:1005B00084E090E0909321018093200118C081E0B5
:1005C00090E0909321018093200111C089818230B5
:1005D00039F485E090E0909321018093200106C0DA
:1005E00081E090E0909321018093200100008091B0
:1005F0002001909121018230910519F0039739F083
:100600000CC0809112018F5F8093120106C080910F
:100610001201815080931201000000000F90DF91C1
:10062000CF910895CF93DF93CDB7DEB780912401AA
:1006300090912501892B09F005C010922501109297
:10064000240100008091240190912501892B09F05B
:100650001EC085E290E020911B01222F30E0229500
:100660003295307F3227207F3227422F20911A0186
:10067000222F30E0220F331F220F331F220F331F90
:10068000242B30911901232BFC0120830000000052
:10069000DF91CF910895CF93DF93CDB7DEB7609709
:1006A0000FB6F894DEBF0FBECDBF84E290E02FEF0F
:1006B000FC01208385E290E0FC01108281E290E061
:1006C000FC01108282E290E02FEFFC0120838CE29B
:1006D00091E0A0E0B0E089839A83AB83BC8388EE8D
:1006E00093E0A0E0B0E08D839E83AF83B88782E083
:1006F00090E0A0E0B0E089879A87AB87BC8781E073
:1007000090E0A0E0B0E08D879E87AF87B88B8D85A5
:100710009E85AF85B889BC01CD010E9440010E9431
:100720009B0010921F0110921E0110922301109243
:10073000220110921D0110921C01109221011092B1
:100740002001109225011092240189819A81AB81A8
:10075000BC818C329140A105B10530F00E946E0140
:1007600019821A821B821C828D819E81AF81B8857D
:10077000883E9340A105B10530F00E94C7011D825B
:100780001E821F82188680911201282F30E040E0DF
:1007900050E089859A85AB85BC8582179307A407AD
:1007A000B50730F00E94100219861A861B861C8637
:1007B0000E946B020E9412030000809114018823A2
:1007C000E1F31092140129813A814B815C818D857E
:1007D0009E85AF85B889820F931FA41FB51F89839B
:1007E0009A83AB83BC832D813E814F8158858D8553
:1007F0009E85AF85B889820F931FA41FB51F8D8377
:100800009E83AF83B88729853A854B855C858D8526
:100810009E85AF85B889820F931FA41FB51F898756
:0C0820009A87AB87BC8791CFF894FFCF7C
:10082C000000000200000000670000000000010052
:04083C0000000200B6
:00000001FF
