:100000000C9446000C9465000C9465000C946500FB
:100010000C9465000C9465000C9465000C946500CC
:100020000C9465000C9465000C9465000C946500BC
:100030000C9465000C94DE000C9465000C94650033
:100040000C9465000C9465000C9465000C9465009C
:100050000C9465000C9465000C9465000C9465008C
:100060000C9465000C9465000C9465000C9465007C
:100070000C9465000C9465000C9465000C9465006C
:100080000C9465000C9465000C94650011241FBE4F
:10009000CFEFD0E4DEBFCDBF11E0A0E0B1E0ECE6F1
:1000A000F5E000E00BBF02C007900D92AE31B10742
:1000B000D9F721E0AEE1B1E001C01D92AA32B2074A
:1000C000E1F70E945B020C94B4020C940000CF9301
:1000D000DF9300D01F92CDB7DEB789837B836A831D
:1000E00089818A3031F48A819B81BC018DE00E9434
:1000F000670080EC90E0FC018081882F90E08072A6
:100100009927892BB1F386EC90E02981FC012083AB
:1001100080E090E00F900F900F90DF91CF910895C5
:10012000CF93DF93CDB7DEB781E080931E0100004F
:10013000DF91CF910895CF93DF93CDB7DEB781E8FC
:1001400090E02BE0FC01208388E890E02DE730E090
:10015000FC01318320838FE690E022E0FC012083C4
:1001600084E890E0FC011182108280910E01909150
:100170000F01A0911001B091110180931F01909384
:100180002001A0932101B09322018FE590E02FE59B
:1001900030E0F90120812068FC0120830000DF911C
:1001A000CF910895CF93DF93CDB7DEB781E890E08C
:1001B000FC0110820000DF91CF9108951F920F92F1
:1001C00000905F000F92112400905B000F922F931C
:1001D0003F934F935F936F937F938F939F93AF93CF
:1001E000BF93EF93FF93CF93DF93CDB7DEB78091AB
:1001F0001F0190912001A0912101B091220101974E
:10020000A109B10980931F0190932001A0932101BE
:10021000B093220180911F0190912001A0912101B2
:10022000B0912201892B8A2B8B2B91F40E94900094
:1002300080910E0190910F01A0911001B0911101D8
:1002400080931F0190932001A0932101B09322017C
:100250000000DF91CF91FF91EF91BF91AF919F91FE
:100260008F917F916F915F914F913F912F910F905F
:1002700000925B000F9000925F000F901F90189506
:10028000CF93DF9300D000D0CDB7DEB769837A83F8
:100290008B839C8389819A81AB81BC8180930E0181
:1002A00090930F01A0931001B093110180910E0162
:1002B00090910F01A0911001B091110180931F0145
:1002C00090932001A0932101B093220100000F9090
:1002D0000F900F900F90DF91CF910895CF93DF9300
:1002E000CDB7DEB78091260190912701823091052C
:1002F000E1F08330910528F4009749F0019771F0FF
:1003000029C083309105C1F00497E9F023C081E052
:1003100090E090932701809326011CC082E090E03A
:10032000909327018093260115C083E090E090937D
:100330002701809326010EC084E090E0909327016E
:100340008093260107C082E090E09093270180937C
:1003500026010000809126019091270183309105AC
:1003600081F084309105B9F0029709F01EC081E058
:100370008093230185E290E020912301FC012083FA
:1003800014C082E08093230185E290E02091230154
:10039000FC0120830AC084E08093230185E290E081
:1003A00020912301FC01208300000000DF91CF9108
:1003B0000895CF93DF93CDB7DEB780912801909158
:1003C00029018130910581F08130910530F0823032
:1003D000910589F00397B1F01CC081E090E0909303
:1003E00029018093280115C083E090E090932901B2
:1003F000809328010EC083E090E0909329018093C0
:10040000280107C082E090E09093290180932801A1
:10041000000080912801909129018230910531F0EE
:100420008330910559F0892B59F00BC085E290E09B
:10043000209123012860FC01208303C0000001C03B
:1004400000000000DF91CF910895CF93DF93CDB7E7
:10045000DEB78091120190911301A0911401B09127
:1004600015018C329140A105B10550F00E946E013A
:1004700010921201109213011092140110921501A2
:100480008091160190911701A0911801B091190166
:10049000883E9340A105B10550F00E94D901109209
:1004A0001601109217011092180110921901000004
:1004B000DF91CF910895CF93DF93CDB7DEB784E27C
:1004C00090E02FEFFC01208385E290E0FC01108298
:1004D00084E690E0A0E0B0E0BC01CD010E944001C4
:1004E0000E949B0010922701109226011092290170
:1004F000109228010E942502000080911E0188238D
:10050000E1F310921E018091120190911301A091CC
:100510001401B091150124E630E040E050E0820F74
:10052000931FA41FB51F8093120190931301A093F2
:100530001401B09315018091160190911701A091BB
:100540001801B091190124E630E040E050E0820F3C
:10055000931FA41FB51F8093160190931701A093BA
:0C0560001801B0931901C6CFF894FFCF2A
:10056C000000000200000000670000000000010015
:0E057C0000002C010000E803000064000000F5
:00000001FF
