:100000000C9446000C9465000C9465000C946500FB
:100010000C9465000C9465000C9465000C946500CC
:100020000C9465000C9465000C9465000C946500BC
:100030000C9465000C94DE000C9465000C94650033
:100040000C9465000C9465000C9465000C9465009C
:100050000C9465000C9465000C9465000C9465008C
:100060000C9465000C9465000C9465000C9465007C
:100070000C9465000C9465000C9465000C9465006C
:100080000C9465000C9465000C94650011241FBE4F
:10009000CFEFD0E4DEBFCDBF11E0A0E0B1E0EEEEE7
:1000A000F6E000E00BBF02C007900D92A231B1074D
:1000B000D9F721E0A2E1B1E001C01D92A232B2075E
:1000C000E1F70E94B9020C9475030C940000CF93E1
:1000D000DF9300D01F92CDB7DEB789837B836A831D
:1000E00089818A3031F48A819B81BC018DE00E9434
:1000F000670080EC90E0FC018081882F90E08072A6
:100100009927892BB1F386EC90E02981FC012083AB
:1001100080E090E00F900F900F90DF91CF910895C5
:10012000CF93DF93CDB7DEB781E08093120100005B
:10013000DF91CF910895CF93DF93CDB7DEB781E8FC
:1001400090E02BE0FC01208388E890E02DE730E090
:10015000FC01318320838FE690E022E0FC012083C4
:1001600084E890E0FC011182108280910E01909150
:100170000F01A0911001B091110180931301909390
:100180001401A0931501B09316018FE590E02FE5BF
:1001900030E0F90120812068FC0120830000DF911C
:1001A000CF910895CF93DF93CDB7DEB781E890E08C
:1001B000FC0110820000DF91CF9108951F920F92F1
:1001C00000905F000F92112400905B000F922F931C
:1001D0003F934F935F936F937F938F939F93AF93CF
:1001E000BF93EF93FF93CF93DF93CDB7DEB78091AB
:1001F000130190911401A0911501B091160101977E
:10020000A109B1098093130190931401A0931501E2
:10021000B09316018091130190911401A0911501E2
:10022000B0911601892B8A2B8B2B91F40E949000A0
:1002300080910E0190910F01A0911001B0911101D8
:100240008093130190931401A0931501B0931601AC
:100250000000DF91CF91FF91EF91BF91AF919F91FE
:100260008F917F916F915F914F913F912F910F905F
:1002700000925B000F9000925F000F901F90189506
:10028000CF93DF9300D000D0CDB7DEB769837A83F8
:100290008B839C8389819A81AB81BC8180930E0181
:1002A00090930F01A0931001B093110180910E0162
:1002B00090910F01A0911001B09111018093130151
:1002C00090931401A0931501B093160100000F90B4
:1002D0000F900F900F90DF91CF910895CF93DF9300
:1002E000CDB7DEB780911C0190911D018230910540
:1002F000E1F08330910528F4009749F0019771F0FF
:1003000029C083309105C1F00497E9F023C081E052
:1003100090E090931D0180931C011CC082E090E04E
:1003200090931D0180931C0115C083E090E0909391
:100330001D0180931C010EC084E090E090931D018C
:1003400080931C0107C082E090E090931D01809390
:100350001C01000080911C0190911D0183309105CA
:1003600051F08430910559F0029709F00CC081E0FA
:100370008093170108C082E08093170104C084E0D5
:100380008093170100000000DF91CF910895CF9373
:10039000DF93CDB7DEB780911E0190911F018130B0
:1003A000910581F08130910530F08230910589F01E
:1003B0000397B1F01CC081E090E090931F018093FF
:1003C0001E0115C083E090E090931F0180931E01F1
:1003D0000EC083E090E090931F0180931E0107C040
:1003E00082E090E090931F0180931E0100008091B5
:1003F0001E0190911F018230910531F083309105EB
:1004000039F0892B41F008C081E08093180104C0C5
:100410001092180101C000000000DF91CF910895F3
:10042000CF93DF931F92CDB7DEB780E290E0FC015F
:10043000808180958770898380911A0190911B013A
:100440008130910581F08130910530F08230910545
:10045000D9F0039751F13AC081E090E090931B01ED
:1004600080931A0133C08981843039F482E090E0AE
:1004700090931B0180931A0129C081E090E0909332
:100480001B0180931A0122C08981882339F483E0FB
:1004900090E090931B0180931A0118C082E090E0D5
:1004A00090931B0180931A0111C08981843039F423
:1004B00082E090E090931B0180931A0106C083E0D4
:1004C00090E090931B0180931A01000080911A0123
:1004D00090911B018230910531F08330910539F004
:1004E000019741F008C081E08093190104C0109287
:1004F000190101C0000000000F90DF91CF91089515
:10050000CF93DF93CDB7DEB7809120019091210189
:10051000892B09F005C010922101109220010000E2
:100520008091200190912101892B09F01EC085E264
:1005300090E020911901222F30E022953295307FF2
:100540003227207F3227422F20911801222F30E0BE
:10055000220F331F220F331F220F331F242B309102
:100560001701232BFC01208300000000DF91CF91B5
:100570000895CF93DF93CDB7DEB760970FB6F894A9
:10058000DEBF0FBECDBF84E290E02FEFFC012083E1
:1005900085E290E0FC01108281E290E0FC01108293
:1005A00082E290E02FEFFC0120838CE291E0A0E05A
:1005B000B0E089839A83AB83BC8388EE93E0A0E0AC
:1005C000B0E08D839E83AF83B88782E090E0A0E0A7
:1005D000B0E089879A87AB87BC8782E090E0A0E093
:1005E000B0E08D879E87AF87B88B8D859E85AF8560
:1005F000B889BC01CD010E9440010E949B0010926D
:100600001D0110921C0110921F0110921E011092E8
:100610001B0110921A011092210110922001898170
:100620009A81AB81BC818C329140A105B10530F03B
:100630000E946E0119821A821B821C828D819E810A
:10064000AF81B885883E9340A105B10530F00E9486
:10065000C7011D821E821F82188689859A85AB85F7
:10066000BC850297A105B10530F00E9410021986E1
:100670001A861B861C860E9480020000809112014F
:100680008823E1F31092120129813A814B815C8128
:100690008D859E85AF85B889820F931FA41FB51FD6
:1006A00089839A83AB83BC832D813E814F8158859A
:1006B0008D859E85AF85B889820F931FA41FB51FB6
:1006C0008D839E83AF83B88729853A854B855C856A
:1006D0008D859E85AF85B889820F931FA41FB51F96
:0E06E00089879A87AB87BC879ACFF894FFCFA3
:1006EE000000000200000000670000000000010092
:0206FE000000FA
:00000001FF
